:020000040800F2
:1000000000000120C5020008CB020008CF02000852
:1000100041030008450300088D03000800000000AC
:10002000000000000000000000000000D5030008F0
:10003000D903000800000000DD030008310F0008AC
:10004000F1030008F1030008F1030008F1030008C0
:10005000F1030008F1030008F1030008F1030008B0
:10006000F1030008F1030008F1030008F1030008A0
:10007000F1030008F1030008F1030008F103000890
:10008000F1030008F1030008F1030008000000007C
:10009000000000000000000000000000F103000864
:1000A000F1030008F1030008F1030008F103000860
:1000B00099090008F1030008F1030008F1030008A2
:1000C000F1030008F1030008F1030008F103000840
:1000D000F1030008F1030008F1030008000000002C
:1000E000F1030008F1030008F1030008000000001C
:1000F000000000000000000000000000F103000804
:1001000000000000F1030008F1030008F1030008FB
:1001100000000000000000000000000000000000DF
:10012000F1030008F1030008F1030008F1030008DF
:10013000F1030008000000000000000000000000C3
:10014000000000000000000000000000F1030008B3
:10015000F1030008F1030008F1030008F1030008AF
:10016000F1030008F1030008000000000000000097
:10017000000000000000000000000000000000007F
:1001800000000000F1030008000000000000000073
:10019000F103000800B583B000F0BAF9384B394AD2
:1001A0001360394A1360394900E02146384B9942BF
:1001B0000BD20A684B6801F10C0488689842F4D9A4
:1001C0001168196004330432F8E72E4B1A68314B7A
:1001D0009A4200D0FEE72C4B1A682F4B9A42F9D175
:1001E000274B2E4A13602E4A13602E4B05E0002049
:1001F000106004329342FAD80B462B4A934204D241
:10020000194651F8082B5B68F4E7244B1B6813B9B7
:10021000234B1B6803B1FEE700F086F9694601A88D
:1002200000F022F9214C224BE41AA4100025AC4224
:1002300014DC204C204BE41AA4100025AC4213DC43
:100240000099019801F03EF805461C4C1C4BE41A3D
:10025000A410002C0EDC284600F0E2F8144B53F8F2
:10026000253098470135E2E7134B53F8253098477E
:100270000135E3E7013C124B53F824309847E8E797
:10028000BABADECA0000002078000020F40300089B
:100290000C04000878563412325476987C00002002
:1002A0002C0100200C0400081C0400081C04000899
:1002B0001C0400081C0400081C0400081C0400089E
:1002C0001C04000808B5FFF765FF00BEFEE71EF03E
:1002D000040F0CBFEFF30880EFF309807146414A29
:1002E00010472DE9F04182B004468846124B5E6B00
:1002F0009F6B9D6A1B6B13F0020F03D00E4BDB6AE2
:10030000002B0CDB0D4800F0B7F8CDF800803B4621
:1003100032462946204600F00BF900BEFEE74BF6B8
:10032000AB6100F07FF90028ECD0034B4FF00042A6
:10033000DA6202B0BDE8F08100ED00E04427000879
:1003400000BEFEE71EF0040F0CBFEFF30880EFF3D2
:1003500009807146244A10472DE9F04182B00446D5
:100360008846084B5E6B9F6B9D6A074800F084F8D7
:10037000CDF800803B4632462946204600F0D8F8AA
:1003800000BEFEE700ED00E0542700081EF0040F59
:100390000CBFEFF30880EFF309807146134A104752
:1003A0002DE9F04182B004468846084B5E6B9F6B96
:1003B0009D6A074800F060F8CDF800803B46324661
:1003C0002946204600F0B4F800BEFEE700ED00E04C
:1003D0006027000800BEFEE700BEFEE700BEFEE7A5
:1003E00070470000E302000859030008A103000859
:0403F00000BEFEE766
:1003F400B4270008000000207C000020B427000877
:1004040000000010000000107C00002030010020DB
:080414000000001000000010C0
:10042000FEE7000008B503460C4A12685AB10B4AB1
:100430001068033323F003030344094A934206D8A8
:10044000064A136008BD054A06491160EFE701F04E
:1004500071FC0C2303604FF0FF30F3E780000020B5
:1004600000FC00203001002001230360014B0B60E1
:10047000704700BF040000200FB400B583B004AB88
:1004800053F8042B01938021064801F085FC0028D5
:1004900003DD0146034800F037F803B05DF804EBD4
:1004A00004B07047880000202DE9F04385B0044671
:1004B0000F4643560BB10E461EE004252846214642
:1004C000ABBE0446384605B0BDE8F08314F9011B05
:1004D00004AA1A4402F8101C0133AB42F6D304AA52
:1004E0001344002203F8102C4FF00408E94640465C
:1004F0004946ABBE8046761B002EE3D03546102E13
:1005000028BF10250023E8E708B5FFF7CDFF08BD99
:1005100008B500F097F8024A024B9A6008BD00BF88
:100520000000000800ED00E008B500F0ABF808BDE1
:10053000F8B504460D4617461E462748FFF79CFFB0
:1005400021682648FFF798FF61682548FFF794FF68
:10055000A1682448FFF790FFE1682348FFF78CFF6C
:1005600021692248FFF788FF61692148FFF784FF6E
:10057000A1692048FFF780FFE1691F48FFF77CFF72
:100580001E48FFF779FF29461D48FFF775FF1D4CF0
:10059000E16A1D48FFF770FF216B1C48FFF76CFFF5
:1005A000E16B1B48FFF768FF15F0800F0AD115F4C7
:1005B000004F0CD11748FFF75FFF06991648FFF769
:1005C0005BFFF8BD39461548FFF756FFEFE73146A8
:1005D0001348FFF751FFEDE72826000838260008EA
:1005E00048260008582600086826000878260008D3
:1005F0008826000898260008A8260008B8260008C3
:10060000C426000800ED00E0D4260008E426000817
:10061000F4260008242700082C27000804270008D7
:100620001427000883691A888A4201D00020704785
:100630000268033A012A03D802338361012070471C
:10064000002070470C4B1A6842F001021A6000212A
:1006500099601A6822F0847222F480321A60074A84
:100660005A601A6822F480221A60D960044B4FF055
:1006700000629A60704700BF0038024010300024CA
:1006800000ED00E0224B9B6803F00C03042B14D018
:10069000082B16D01BB11F4B1F4A1A6002E01D4BDE
:1006A0001D4A1A601A4B9B68C3F303131B4AD15CA3
:1006B000184A1368CB4013607047164B184A1A60EB
:1006C000F0E7134B5A685B6803F03F0312F4800FA6
:1006D00013D0134AB2FBF3F20D4B5B68C3F38813DC
:1006E00003FB02F30A4A5268C2F30142013252008C
:1006F000B3FBF2F3074A1360D4E7074AB2FBF3F205
:10070000034B5B68C3F3881303FB02F3EAE700BF04
:10071000003802400C0000200024F400702700087C
:1007200040787D0108B500F021F9144B1B683B2B84
:100730000ED9134A138814331380114B1B88B3F559
:100740007A7F12D2632B14D80D4B64221A8010E0EA
:10075000272BF2D80E2B04D9094A1388143B138097
:10076000EBE7074B64221A80E7E7054B4FF47A72F8
:100770001A80034B188800F0D8F808BD2401002027
:100780001000002008B5022000F009F80C2102201A
:1007900000F00FF80D21022000F00BF808BD10B595
:1007A000044600F04BFB611EC9B2012000F06EFB55
:1007B00010BD38B504460D46002200F071F9012243
:1007C0002946204600F02AFA38BD08B500F060FA44
:1007D00008BD08B501220021104600F061F9012290
:1007E0000021104600F096F901220021104600F089
:1007F000DBF901221146104600F052F901221146A0
:10080000104600F087F901221146104600F0CCF99D
:1008100001220221104600F043F901220221104674
:1008200000F078F901220221104600F0BDF9012202
:100830000321104600F034F901220321104600F094
:1008400069F901220321104600F0AEF908BD08B590
:1008500001220021104600F03BFA00220121084647
:1008600000F036FA00220221012000F031FA0122C4
:100870000321104600F02CFA08BD08B500221146ED
:10088000012000F025FA01221146104600F020FA5E
:1008900001220221104600F01BFA00220321012050
:1008A00000F016FA08BD08B500221146012000F03C
:1008B0000FFA00220121084600F00AFA0022022164
:1008C000012000F005FA00220321012000F000FAC7
:1008D00008BD08B501220021104600F0F9F90022F8
:1008E0000121084600F0F4F901220221104600F02F
:1008F000EFF900220321012000F0EAF908BD08B554
:1009000000221146012000F0E3F9012211461046B1
:1009100000F0DEF900220221012000F0D9F90122C5
:100920000321104600F0D4F908BD08B501460220A5
:1009300000F090FB08BD08B501220621104600F02A
:10094000AFF801220621104600F0E4F8012206214A
:10095000104600F029F902220521012000F0A0F83C
:1009600001220521104600F0EFF908BD08B500226C
:100970000621012000F0ACF901220621104600F00A
:10098000A7F9642000F0E8FA00220621012000F017
:100990009FF908BD0000000008B5174B1B78E3B1B4
:1009A000012000F01DFC154B1860134B00221A703B
:1009B00000F00FFC00F038FC104B1868104B1B685F
:1009C000C01A00F00BFF0AA3D3E9002300F080FF58
:1009D00001F090F90B4B186008BD00F0F3FB01200B
:1009E00000F0FEFB064B1860034B01221A70E3E790
:1009F0009CC420B07268C13F100100200801002093
:100A00000C0100202401002008B50220FFF7C7FEDA
:100A10000E210220FFF7CDFE0F210220FFF7C9FEB5
:100A200008BD08B50F210220FFF7CFFE08BD08B5AD
:100A30000E210220FFF7C9FE08BD000008B5FFF730
:100A4000E3FFFFF7EEFF144B1870FFF7F0FF134BB7
:100A5000187001280BD010B90F4B1B7873B1012807
:100A60000FD018B90C4B1B78012B11D008BD0A4BC5
:100A70001B78012BEFD1FFF7EAFEF7E7FFF713FF33
:100A8000F4E7054B1B78002BEBD1FFF738FFEDE7C0
:100A9000FFF71FFFEAE700BF12010020110100204D
:100AA00010B4022813D003281FD0012801D010BC95
:100AB0007047154B1868490003248C4020EA040055
:100AC0001860186802FA01F101431960EFE70F4B53
:100AD0001868490003248C4020EA04001860186854
:100AE00002FA01F101431960E1E7094B1868490076
:100AF00003248C4020EA04001860186802FA01F10F
:100B000001431960D3E700BF000002400004024027
:100B100000080240022818D003282AD0012800D05B
:100B20007047012A09D0022AFAD11C4843680122E1
:100B300002FA01F11943416070471848436802FA0C
:100B400001F123EA010141607047012A09D0022A1C
:100B5000E6D113484368012202FA01F119434160CA
:100B600070470F48436802FA01F123EA010141602E
:100B70007047012A09D0022AD2D10A4843680122CB
:100B800002FA01F119434160CAE70648436802FAD4
:100B900001F123EA01014160704700BF00000240FB
:100BA000000402400008024010B4022813D00328B9
:100BB0001FD0012801D010BC7047154B9868490020
:100BC00003248C4020EA04009860986802FA01F13E
:100BD00001439960EFE70F4B9868490003248C406C
:100BE00020EA04009860986802FA01F101439960D4
:100BF000E1E7094B9868490003248C4020EA04008F
:100C00009860986802FA01F101439960D3E700BF48
:100C100000000240000402400008024010B4022814
:100C200013D003281FD0012801D010BC7047154BEA
:100C3000D868490003248C4020EA0400D860D868B2
:100C400002FA01F10143D960EFE70F4BD868490080
:100C500003248C4020EA0400D860D86802FA01F12D
:100C60000143D960E1E7094BD868490003248C406F
:100C700020EA0400D860D86802FA01F10143D96083
:100C8000D3E700BF00000240000402400008024019
:100C900002280BD003280FD0012801D00020704774
:100CA000084B1869C84000F001007047064B1869EE
:100CB000C84000F001007047044B1869C84000F0BC
:100CC000010070470000024000040240000802409A
:100CD000022817D0032828D0012800D0704742B13D
:100CE000012AFBD11548436902FA01F11943416118
:100CF000704712484369012202FA01F123EA010117
:100D00004161704742B1012AE8D10D48436902FAB6
:100D100001F119434161704709484369012202FA10
:100D200001F123EA010141617047012AD6D105484A
:100D3000436902FA01F119434161CFE70000024023
:100D4000000402400008024010B4022828D0032802
:100D500043D0012801D010BC7047072912D90F29B0
:100D6000F9D8A1F10804E4B22B4B596AA4000F2072
:100D7000A04021EA00015962586A02FA04F10143D5
:100D80005962E8E7244B186A89000F248C4020EA56
:100D900004001862186A02FA01F101431962DAE7E5
:100DA000072A0CD90F2AD6D81C4B5C6A88000F2161
:100DB000814024EA0101596282405A62CBE7174B15
:100DC000186A89000F248C4020EA04001862186A0F
:100DD00002FA01F101431962BDE7072A0DD90F2A72
:100DE000B9D80F48446A8B000F21994024EA0101C9
:100DF000416202FA03F34362ADE7094B186A8900C6
:100E00000F248C4020EA04001862186A02FA01F1EB
:100E1000014319629FE700BF000002400004024046
:100E20000008024000F01F02400901239340024ADB
:100E300042F82030704700BF00E100E0124A13681A
:100E400043F001031360104B1B6813F0020FFAD03C
:100E50000D4B9A6822F001029A609A6822F0020211
:100E60009A609A6822F0F00242F080029A609A68D2
:100E700022F4E05242F480629A609A6822F460425E
:100E800042F400529A60704700380240013803284B
:100E900022D8DFE800F0020A121A1048036B012280
:100EA00002FA01F11943016370470C48436B0122B8
:100EB00002FA01F11943416370470848036C0122AB
:100EC00002FA01F11943016470470448436C01229E
:100ED00002FA01F119434164704700BF0038024033
:100EE000074B1A6822F004021A601A6822F0020204
:100EF0001A6000225A601A6822F001021A607047D4
:100F000010E000E0024A136843F0010313607047E9
:100F100010E000E0024A136823F0010313607047F9
:100F200010E000E0014B5860704700BF10E000E0A7
:100F300000B583B0064B1B6803B19847054B1B688F
:100F4000C3F300438DF8073003B05DF804FB00BF26
:100F50001401002010E000E008B5FFF7E3FFFFF701
:100F6000D1FF044B1B6813F4803FFAD0FFF7D2FF88
:100F700008BD00BF10E000E0314B1A6822F4807217
:100F80001A601A6822F400721A601A6822F02002AD
:100F90001A601A6822F040021A601A6822F01002E1
:100FA0001A60013803284AD8DFE800F00214263816
:100FB000234B9A6922F010029A619A6942F020024A
:100FC0009A619A6942F040029A611A6A42F00102FB
:100FD0001A6270471A4B9A6922F480529A619A6990
:100FE00042F400529A619A6942F480429A611A6A04
:100FF00042F010021A627047114BDA6922F01002B7
:10100000DA61DA6942F02002DA61DA6942F040021C
:10101000DA611A6A42F480721A627047084BDA6920
:1010200022F48052DA61DA6942F40052DA61DA6954
:1010300042F48042DA611A6A42F480521A627047BE
:1010400000040040024A136843F001031360704734
:1010500000040040013803280ED8DFE800F0020544
:10106000080B064B59637047044B99637047034B59
:10107000D9637047014B1964704700BF00040040FA
:10108000014BD862704700BF00040040014B9862DA
:10109000704700BF000400404FF080431A6822F000
:1010A00020021A601A6822F040021A601A6822F0C0
:1010B00010021A600138032821D8DFE800F0022668
:1010C00045644FF080439A6942F001029A619A693F
:1010D00022F002029A619A6922F004029A619A69E6
:1010E00022F008029A611A6A42F002021A621A6A2F
:1010F00042F008021A621A6A42F001021A624FF0C4
:1011000080434FF6FF72DA6270474FF080439A696E
:1011100042F480729A619A6922F400729A619A6923
:1011200022F480629A619A6922F480629A611A6A52
:1011300042F020021A621A6A42F080021A621A6AA7
:1011400042F010021A62DAE74FF08043DA6942F0A7
:101150000102DA61DA6922F00202DA61DA6922F464
:101160008062DA61DA6922F48062DA611A6A42F432
:1011700000721A621A6A42F400621A621A6A42F42F
:1011800080721A62BBE74FF08043DA6942F48072E2
:10119000DA61DA6922F40072DA61DA6922F48062D3
:1011A000DA61DA6922F40062DA611A6A42F4005202
:1011B0001A621A6A42F400421A621A6A42F48052AF
:1011C0001A629CE74FF08042136843F001031360FA
:1011D00070474FF08042136823F00103136070479B
:1011E0000138032813D8DFE800F002060A0E4FF09A
:1011F0008043586B70474FF08043986B70474FF0B7
:101200008043D86B70474FF08043186C70470020C4
:1012100070474FF08042D36843F00203D3607047B9
:101220004FF08043986270474FF0804300225A622B
:1012300070470000094B9860DA6822F40042DA60D7
:10124000DA6822F48052DA601A6922F480521A6154
:101250001A6922F400521A61704700BF0010014061
:10126000024AD36843F40053D36070470010014032
:10127000024AD36843F00803D3607047001001406E
:10128000024AD36843F00403D36070470010014062
:10129000044B1B6813F0200FFAD0024B5868C0B201
:1012A000704700BF00100140054B1B6813F0200F72
:1012B00003D0034B5868C0B270470020704700BF8E
:1012C0000010014008B5FFF7B9FD00210120FFF72C
:1012D000DDFD01210846FFF7D9FD00210320FFF7BE
:1012E000D5FD01210320FFF7D1FD04210846FFF7BA
:1012F000CDFD022209210120FFF7D2FB02220A21A3
:101300000120FFF7CDFB072209210120FFF71CFD7B
:1013100007220A210120FFF717FD40F24130FFF7B5
:1013200089FFFFF7ADFFFFF7A3FFFFF799FF1C2031
:10133000FFF778FDFFF7D4FDFFF7FDFA0222052144
:101340001046FFF7ADFB022205211046FFF7FCFC1B
:101350000120FFF7A1FE4020FFF762FFFFF759FFD2
:101360000220FFF709FE4FF47A70FFF789FEA020F4
:10137000FFF78CFEFFF766FEFFF72BFA4FF4FA70CB
:10138000FFF7D3FAFFF7FEF901E0FFF760FAFFF786
:101390007FFF704B18603138402800F2D88001A3DD
:1013A00053F820F0EF140008F7140008FF140008A9
:1013B00009150008131500081D1500082715000859
:1013C000311500083B1500084F1500084F1500089F
:1013D0004F1500084F1500084F1500084F1500085D
:1013E0004F1500084F150008A91400084F150008F4
:1013F0004F1500084F1500088B1300084F15000803
:101400004F1500084F1500084F1500084F1500082C
:10141000AF1400084F1500084F1500084F150008BD
:101420004F1500084F150008B51400084F150008A7
:101430004F150008DB1400084F150008BB14000806
:101440004F1500084F1500084F1500084F150008EC
:101450004F1500084F1500084F1500084F150008DC
:101460004F1500084F1500084F1500084F150008CC
:101470004F1500084F1500084F1500084F150008BC
:101480004F1500084F1500084F1500084F150008AC
:101490004F1500084F1500084F1500084F1500089C
:1014A0004F15000845150008FFF7E7F96FE7FFF74C
:1014B00026FA6CE7FFF70DFA69E7FFF7C8F9FFF7BF
:1014C000F3FE244B186000287FF461AFFFF72AF980
:1014D00043F69820FFF740FDF1E7FFF7E5FE1D4BCF
:1014E000186000287FF453AFFFF7A8FAF5E76420EF
:1014F000FFF71BFA4BE7C820FFF717FA47E74FF44F
:101500009670FFF712FA42E74FF4C870FFF70DFA32
:101510003DE74FF4FA70FFF708FA38E74FF416701A
:10152000FFF703FA33E74FF42F70FFF7FEF92EE7CA
:101530004FF44870FFF7F9F929E74FF46170FFF7AE
:10154000F4F924E74FF47A70FFF7EFF91FE7FFF79C
:10155000AAF91CE72801002081F0004102E000BF49
:1015600083F0004330B54FEA41044FEA430594EA63
:10157000050F08BF90EA020F1FBF54EA000C55EA9E
:10158000020C7FEA645C7FEA655C00F0E2804FEA6F
:101590005454D4EB5555B8BF6D420CDD2C4480EA51
:1015A000020281EA030382EA000083EA010180EA81
:1015B000020281EA0303362D88BF30BD11F0004FCF
:1015C0004FEA01314FF4801C4CEA113102D0404205
:1015D00061EB410113F0004F4FEA03334CEA133340
:1015E00002D0524263EB430394EA050F00F0A78058
:1015F000A4F10104D5F1200E0DDB02FA0EFC22FA53
:1016000005F2801841F1000103FA0EF2801843FA46
:1016100005F359410EE0A5F120050EF1200E012A37
:1016200003FA0EFC28BF4CF0020C43FA05F3C01875
:1016300051EBE37101F0004507D54FF0000EDCF1EE
:10164000000C7EEB00006EEB0101B1F5801F1BD397
:10165000B1F5001F0CD349085FEA30004FEA3C0C9B
:1016600004F101044FEA445212F5800F80F09A8091
:10167000BCF1004F08BF5FEA500C50F1000041EB95
:10168000045141EA050130BD5FEA4C0C404141EB99
:10169000010111F4801FA4F10104E9D191F0000FC0
:1016A00004BF01460020B1FA81F308BF2033A3F143
:1016B0000B03B3F120020CDA0C3208DD02F1140C3A
:1016C000C2F10C0201FA0CF021FA02F10CE002F175
:1016D0001402D8BFC2F1200C01FA02F120FA0CFC6E
:1016E000DCBF41EA0C019040E41AA2BF01EB0451B7
:1016F000294330BD6FEA04041F3C1CDA0C340EDCB5
:1017000004F11404C4F1200220FA04F001FA02F3F7
:1017100040EA030021FA04F345EA030130BDC4F1B5
:101720000C04C4F1200220FA02F001FA04F340EAAA
:101730000300294630BD21FA04F0294630BD94F05B
:10174000000F83F4801306BF81F480110134013D42
:101750004EE77FEA645C18BF7FEA655C29D094EAB3
:10176000050F08BF90EA020F05D054EA000C04BF31
:101770001946104630BD91EA030F1EBF002100201C
:1017800030BD5FEA545C05D14000494128BF41F0BB
:10179000004130BD14F580043CBF01F5801130BD1F
:1017A00001F0004545F0FE4141F470014FF00000AA
:1017B00030BD7FEA645C1ABF194610467FEA655C5B
:1017C0001CBF0B46024650EA013406BF52EA0335FD
:1017D00091EA030F41F4002130BD00BF90F0000FEB
:1017E00004BF0021704730B54FF4806404F1320427
:1017F0004FF000054FF0000150E700BF90F0000FE0
:1018000004BF0021704730B54FF4806404F1320406
:1018100010F0004548BF40424FF000013EE700BFD6
:1018200042004FEAE2014FEA31014FEA02701FBF66
:1018300012F07F4393F07F4F81F06051704732F098
:101840007F4208BF704793F07F4F04BF41F40021EF
:10185000704730B54FF4607401F0004521F000414D
:101860001CE700BF50EA010208BF704730B54FF0D7
:1018700000050AE050EA010208BF704730B511F0D8
:10188000004502D5404261EB41014FF4806404F110
:1018900032045FEA915C3FF4D8AE4FF003025FEA96
:1018A000DC0C18BF03325FEADC0C18BF033202EB1A
:1018B000DC02C2F1200300FA03FC20FA02F001FA74
:1018C00003FE40EA0E0021FA02F11444BDE600BF17
:1018D00070B54FF0FF0C4CF4E06C1CEA11541DBFC6
:1018E0001CEA135594EA0C0F95EA0C0F00F0DEF891
:1018F0002C4481EA030621EA4C5123EA4C5350EA76
:10190000013518BF52EA033541F4801143F48013C6
:1019100038D0A0FB02CE4FF00005E1FB02E506F057
:101920000042E0FB03E54FF00006E1FB03569CF0AC
:10193000000F18BF4EF0010EA4F1FF04B6F5007FB2
:1019400064F5407404D25FEA4E0E6D4146EB060624
:1019500042EAC62141EA55514FEAC52040EA5E50AD
:101960004FEACE2EB4F1FD0C88BFBCF5E06F1ED857
:10197000BEF1004F08BF5FEA500E50F1000041EB8E
:10198000045170BD06F0004646EA010140EA02003B
:1019900081EA0301B4EB5C04C2BFD4EB0C0541EA5D
:1019A000045170BD41F480114FF0000E013C00F372
:1019B000AB8014F1360FDEBF002001F0004170BD96
:1019C000C4F10004203C35DA0C341BDC04F11404AF
:1019D000C4F1200500FA05F320FA04F001FA05F23B
:1019E00040EA020001F0004221F0004110EBD37008
:1019F00021FA04F642EB06015EEA430E08BF20EA34
:101A0000D37070BDC4F10C04C4F1200500FA04F3D6
:101A100020FA05F001FA04F240EA020001F0004168
:101A200010EBD37041F100015EEA430E08BF20EADB
:101A3000D37070BDC4F1200500FA05F24EEA020E23
:101A400020FA04F301FA05F243EA020321FA04F052
:101A500001F0004121FA04F220EA020000EBD37009
:101A60005EEA430E08BF20EAD37070BD94F0000F09
:101A70000FD101F00046400041EB010111F4801F3D
:101A800008BF013CF7D041EA060195F0000F18BFEE
:101A9000704703F00046520043EB030313F4801F2A
:101AA00008BF013DF7D043EA0603704794EA0C0FE4
:101AB0000CEA135518BF95EA0C0F0CD050EA4106FA
:101AC00018BF52EA4306D1D181EA030101F0004177
:101AD0004FF0000070BD50EA410606BF104619469F
:101AE00052EA430619D094EA0C0F02D150EA0136AB
:101AF00013D195EA0C0F05D152EA03361CBF1046EC
:101B000019460AD181EA030101F0004141F0FE418A
:101B100041F470014FF0000070BD41F0FE4141F40E
:101B2000780170BD70B54FF0FF0C4CF4E06C1CEA0E
:101B300011541DBF1CEA135594EA0C0F95EA0C0FC3
:101B400000F0A7F8A4EB050481EA030E52EA03357E
:101B50004FEA013100F088804FEA03334FF080559F
:101B600045EA131343EA12634FEA022245EA1115CC
:101B700045EA10654FEA00260EF000419D4208BF7D
:101B8000964244F1FD0404F5407402D25B084FEA2A
:101B90003202B61A65EB03055B084FEA32024FF4D6
:101BA00080104FF4002CB6EB020E75EB030E22BF33
:101BB000B61A754640EA0C005B084FEA3202B6EBF3
:101BC000020E75EB030E22BFB61A754640EA5C00A2
:101BD0005B084FEA3202B6EB020E75EB030E22BF32
:101BE000B61A754640EA9C005B084FEA3202B6EB33
:101BF000020E75EB030E22BFB61A754640EADC00F2
:101C000055EA060E18D04FEA051545EA16754FEA53
:101C100006164FEAC30343EA52734FEAC2025FEA71
:101C20001C1CC0D111F4801F0BD141EA00014FF000
:101C300000004FF0004CB6E711F4801F04BF0143D1
:101C40000020B4F1FD0C88BFBCF5E06F3FF6AFAEED
:101C5000B5EB030C04BFB6EB020C5FEA500C50F17D
:101C6000000041EB045170BD0EF0004E4EEA113100
:101C700014EB5C04C2BFD4EB0C0541EA045170BD07
:101C800041F480114FF0000E013C90E645EA060E4B
:101C90008DE60CEA135594EA0C0F08BF95EA0C0F79
:101CA0003FF43BAF94EA0C0F0AD150EA01347FF4C1
:101CB00034AF95EA0C0F7FF425AF104619462CE798
:101CC00095EA0C0F06D152EA03353FF4FDAE1046FB
:101CD000194622E750EA410618BF52EA43067FF44C
:101CE000C5AE50EA41047FF40DAF52EA43057FF4DC
:101CF000EBAE12E74A0011D212F5001211D20DD547
:101D00006FF47873B3EB62520ED44FEAC12343F001
:101D1000004343EA505323FA02F070474FF00000AB
:101D2000704750EA013002D14FF0FF3070474FF05A
:101D300000007047014B1868704700BF1400002076
:101D400030B5141E05469BB0184605DA8B232B6070
:101D50004FF0FF301BB030BD4FF40273ADF80C30C4
:101D600014BF04F1FF332346029305934FF6FF732C
:101D700000910491ADF80E3002461E9B694628463C
:101D800000F072F8431CBCBF8B232B60002CE1D009
:101D9000009B00221A70DDE707B5009313460A4640
:101DA000014603480068FFF7CBFF03B05DF804FB72
:101DB000140000202DE9F0478E689E4282460C46B2
:101DC0009046994637D88A8912F4906F31D02568A9
:101DD00009696F1A6569022305EB450595FBF3F563
:101DE00009F101033B449D4238BF1D46530530D5E0
:101DF000294600F07FFB064650B90C23CAF8003094
:101E0000A38943F04003A3814FF0FF30BDE8F08782
:101E10003A46216900F0FCFAA38923F4906343F069
:101E20008003A381266165613E44ED1B2660A560A9
:101E30004E464E4500D94E4632464146206800F097
:101E4000F2FAA3689B1BA36023681E44266000204F
:101E5000DCE72A4600F0A8FB06460028E2D121690B
:101E6000504600F0F9FAC8E72DE9F04F9DB08046E2
:101E700003938B891D060C4616460FD50B696BB96B
:101E8000402100F037FB2060206128B90C23C8F8FE
:101E900000304FF0FF30C7E0402363610023099317
:101EA00020238DF8293030238DF82A304FF0010B94
:101EB00037463D4615F8013B0BB1252B3ED1B7EB1C
:101EC000060A0BD05346324621464046FFF772FFC2
:101ED000013000F0A480099B534409933B78002B08
:101EE00000F09D8000234FF0FF32CDE905230493DD
:101EF00007938DF853301A932F46052217F8011BCC
:101F00004F4800F035FA049BD0B9D90644BF2022CF
:101F10008DF853201A0744BF2B228DF853202A78BE
:101F20002A2A15D0079A2F4600200A25394611F88B
:101F3000013B303B092B4DD9B8B10FE02F46B8E734
:101F40003F4A801A0BFA00F0184304903D46D3E74D
:101F5000039A111D12680391002A01DB079204E025
:101F6000524243F00203079204933B782E2B0CD18C
:101F70007B782A2B33D1039B1A1D1B680392002BFD
:101F8000B8BF4FF0FF33023705932E4D3978032247
:101F9000284600F0EDF938B14023401B03FA00F069
:101FA000049B034301370493397827488DF82810A0
:101FB00006227E1C00F0DCF9002838D0234B13BB2E
:101FC000039B073323F0070308330393099B4B4418
:101FD00009936DE705FB023201200F46A6E70023B7
:101FE0000137059319460A25384610F8012B303A77
:101FF000092A03D9002BC8D00591C6E705FB0121AA
:1020000001230746F0E703AB00932246104B04A9D7
:102010004046AFF30080B0F1FF3F8146D6D1A3899F
:102020005B063FF536AF09981DB0BDE8F08F03ABF6
:1020300000932246064B04A9404600F081F8EAE7E7
:1020400080270008862700088A2700080000000073
:10205000B51D00082DE9F04791461F468A680B69B7
:10206000DDF820809342B8BF1346C9F8003091F8DC
:10207000432006460C4612B10133C9F800302368EC
:10208000990642BFD9F800300233C9F800302568FC
:1020900015F0060507D104F1190AE368D9F8002004
:1020A0009B1AAB4228DC94F843302268003318BFF7
:1020B000012392062DD404F1430239463046C0472D
:1020C000013020D02368E568D9F8002003F006032A
:1020D000042B08BFAD1AA36822690CBF25EAE57579
:1020E00000259342C4BF9B1AED184FF000091A3423
:1020F0004D451AD1002008E00123524639463046AA
:10210000C047013003D14FF0FF30BDE8F087013503
:10211000C3E7E1185A1C302081F84300224494F8A8
:10212000451082F843100233C5E7012322463946A1
:102130003046C0470130E6D009F10109D8E7000078
:102140002DE9F04301F1430C0C46097E85B06E2960
:102150001746064698460C9A00F0B38022D86329A9
:1021600036D00AD8002900F0B980582900F08380C1
:1021700004F1420584F8421032E0642901D0692953
:10218000F6D120681368050603F104012AD51B68FF
:102190001160002B03DA2D225B4284F843206F4844
:1021A0000A2239E0732900F09D8008D86F2920D0D9
:1021B0007029DDD1236843F02003236003E07529F3
:1021C00017D07829D4D1782384F84530644855E075
:1021D0001368191D1B68116004F1420584F8423030
:1021E00001238CE01B68116010F0400F18BF1BB278
:1021F000CFE713682568181D1060280601D51B68F5
:1022000002E06806FBD51B8854486F2914BF0A22D8
:102210000822002184F843106568A560002DC0F2F3
:102220009580216821F004012160002B3DD1002D13
:1022300040F08E806546082A0BD12368DB0708D55D
:10224000236962689A42DEBF302305F8013C05F13C
:10225000FF35ACEB05032361CDF800803B4603AAB4
:1022600021463046FFF7F6FE01304DD14FF0FF30EA
:1022700005B0BDE8F083394884F84510136821683B
:102280001D1D1B6815600A060BD5CA0744BF41F027
:10229000200121601BB9226822F020022260102256
:1022A000B7E74D0648BF9BB2EFE76546B3FBF2F1D7
:1022B00002FB1133C35C05F8013D0B460029F5D143
:1022C000B9E7136825686169181D106028061B6846
:1022D00001D5196002E06A06FBD51980002323614D
:1022E0006546B9E71368191D11601D686268002111
:1022F000284600F03DF808B1401B60606368236128
:10230000002384F84330A7E723692A46394630463C
:10231000C0470130AAD023689B0713D4E068039B11
:102320009842B8BF1846A3E701234A4639463046CB
:10233000C04701309AD00135E368039A9B1AAB423B
:10234000F2DCEBE7002504F11909F5E7002BACD12D
:10235000037884F8423004F142056CE791270008C5
:10236000A22700080000000000000000000000009C
:1023700001F0FF01102A2BDB10F0070F08D010F836
:10238000013B013A8B422DD010F0070F42B3F6D13A
:10239000F0B441EA012141EA014122F007047FF053
:1023A00000070023F0E80256083C85EA010586EAAA
:1023B000010685FA47F5A3FA87F586FA47F6A5FAE6
:1023C00087F68EB9EED1F0BC01F0FF0102F00702F2
:1023D00032B110F8013B013A83EA010313B1F8D19D
:1023E0000020704701387047002D06BF354603387E
:1023F000073815F0010F07D1013015F4807F02BFB7
:10240000013015F4C03F0130F0BC0138704700BF07
:1024100010B5431E0A44914200D110BD11F8014B82
:1024200003F8014FF7E7884210B501EB020307D824
:10243000421E99420AD011F8014B02F8014FF8E709
:102440008342F5D98118D21AD34200D110BD13F8B6
:10245000014D01F8014DF7E738B50546002945D093
:1024600051F8043C0C1F002BB8BFE41800F0D2F860
:102470001F4A1368104633B9636014602846BDE8EC
:10248000384000F0C8B8A3420CD9216862189342C2
:1024900004BF1A685B68636004BF5218226004605E
:1024A000ECE713465A680AB1A242FAD919685818DB
:1024B000A0420BD120680144581882421960DDD136
:1024C000106852685A6001441960D7E702D90C239A
:1024D0002B60D3E7206821188A4204BF1168526834
:1024E000626004BF091821605C60C7E738BD00BFA7
:1024F0001801002070B5CD1C25F0030508350C2D02
:1025000038BF0C25002D064601DBA94203D90C2358
:102510003360002070BD00F07DF8214A1468214628
:1025200091B9204C23681BB9304600F063F8206055
:102530002946304600F05EF8431C24D10C2333605A
:10254000304600F068F8E4E70B685B1B18D40B2BEF
:102550000FD90B60CD50CC18304600F05CF804F178
:102560000B00231D20F00700C31AD3D05A42E250BB
:10257000D0E78C424B6816BF636013600C46EBE7F4
:102580000C464968CCE7C41C24F00304A04205D0E3
:10259000211A304600F02EF80130CFD02560DBE75D
:1025A000180100201C010020F8B5074614460E460D
:1025B00021B91146BDE8F840FFF79CBF22B9FFF7EB
:1025C0004BFF25462846F8BD00F026F8A0420FD262
:1025D00021463846FFF78EFF05460028F2D03146E7
:1025E0002246FFF715FF31463846FFF735FFE9E78A
:1025F0003546E7E738B5064C002305460846236014
:10260000FDF710FF431C02D1236803B12B6038BDD6
:10261000200100207047704751F8043C181F002B20
:10262000BCBF0B58C0187047537461636B2066724F
:10263000616D653A0A000000205230203D202025BF
:102640003038580A00000000205231203D2020255B
:102650003038580A00000000205232203D2020254A
:102660003038580A00000000205233203D20202539
:102670003038580A0000000020523132203D202519
:102680003038580A00000000204C52203D20202500
:102690003038580A00000000205043203D202025FB
:1026A0003038580A0000000020505352203D2025A9
:1026B0003038580A000000004653522F4641523A23
:1026C0000A0000002043465352203D202025303888
:1026D000580A00002048465352203D20202530381B
:1026E000580A00002044465352203D20202530380F
:1026F000580A00002041465352203D202025303802
:10270000580A0000204D4D464152203D20253038CA
:10271000580A00002042464152203D2020253038F2
:10272000580A00004D6973630A000000204C522FC4
:102730004558435F52455455524E3D202530385838
:102740000A0000005B486172644661756C745D0A42
:10275000000000005B4275734661756C745D0A0091
:102760005B55736167654661756C745D0A000000B6
:102770000000000000000000010203040607080931
:10278000232D302B2000686C4C006566674546475A
:1027900000303132333435363738394142434445DD
:1027A000460030313233343536373839616263644C
:0327B0006566005B
:1027B4007856341284000020000000000024F40045
:1027C4006400FFFF1800002000000000000000006B
:1027D40000000000000000000000000000000000F5
:1027E40000000000000000000000000000000000E5
:1027F40000000000000000000000000000000000D5
:1028040000000000000000000000000000000000C4
:1028140000000000000000000000000000000000B4
:0C28240000000000000000003254769814
:040000050800019559
:00000001FF
