:020000040800F2
:1000000000000120C5020008CB020008CF02000852
:1000100041030008450300088D03000800000000AC
:10002000000000000000000000000000D5030008F0
:10003000D903000800000000DD03000821150008B6
:10004000F1030008F1030008F1030008F1030008C0
:10005000F1030008F1030008F1030008F1030008B0
:10006000F1030008F1030008F1030008F1030008A0
:10007000F1030008F1030008F1030008F103000890
:10008000F1030008F1030008F1030008000000007C
:10009000000000000000000000000000F103000864
:1000A000F1030008F1030008F1030008F103000860
:1000B000C9100008F1030008F1030008F10300086B
:1000C000F1030008F1030008F1030008F103000840
:1000D000F1030008F1030008F1030008000000002C
:1000E000F1030008F1030008F1030008000000001C
:1000F000000000000000000000000000F103000804
:1001000000000000F1030008F1030008F1030008FB
:1001100000000000000000000000000000000000DF
:10012000F1030008F1030008F1030008F1030008DF
:10013000F1030008000000000000000000000000C3
:10014000000000000000000000000000F1030008B3
:10015000F1030008F1030008F1030008F1030008AF
:10016000F1030008F1030008000000000000000097
:10017000000000000000000000000000000000007F
:1001800000000000F1030008000000000000000073
:10019000F103000800B583B000F004FF384B394A82
:1001A0001360394A1360394900E02146384B9942BF
:1001B0000BD20A684B6801F10C0488689842F4D9A4
:1001C0001168196004330432F8E72E4B1A68314B7A
:1001D0009A4200D0FEE72C4B1A682F4B9A42F9D175
:1001E000274B2E4A13602E4A13602E4B05E0002049
:1001F000106004329342FAD80B462B4A934204D241
:10020000194651F8082B5B68F4E7244B1B6813B9B7
:10021000234B1B6803B1FEE701F0ECFA694601A825
:1002200000F0E2FD214C224BE41AA4100025AC4260
:1002300014DC204C204BE41AA4100025AC4213DC43
:100240000099019801F0E8FA05461C4C1C4BE41A91
:10025000A410002C0EDC284600F0A2FD144B53F82D
:10026000253098470135E2E7134B53F8253098477E
:100270000135E3E7013C124B53F824309847E8E797
:10028000BABADECA000000207C000020F403000897
:100290000C040008785634123254769880000020FE
:1002A000380100200C0400081C0400081C0400088D
:1002B0001C0400081C0400081C0400081C0400089E
:1002C0001C04000808B5FFF765FF00BEFEE71EF03E
:1002D000040F0CBFEFF30880EFF309807146414A29
:1002E00010472DE9F04182B004468846124B5E6B00
:1002F0009F6B9D6A1B6B13F0020F03D00E4BDB6AE2
:10030000002B0CDB0D4800F0ABFDCDF800803B4628
:1003100032462946204600F0BBFD00BEFEE74BF604
:10032000AB6100F02FFE0028ECD0034B4FF00042F1
:10033000DA6202B0BDE8F08100ED00E008320008AA
:1003400000BEFEE71EF0040F0CBFEFF30880EFF3D2
:1003500009807146244A10472DE9F04182B00446D5
:100360008846084B5E6B9F6B9D6A074800F078FDDE
:10037000CDF800803B4632462946204600F088FDF5
:1003800000BEFEE700ED00E0183200081EF0040F8A
:100390000CBFEFF30880EFF309807146134A104752
:1003A0002DE9F04182B004468846084B5E6B9F6B96
:1003B0009D6A074800F054FDCDF800803B46324668
:1003C0002946204600F064FD00BEFEE700ED00E097
:1003D0002432000800BEFEE700BEFEE700BEFEE7D6
:1003E00070470000E302000859030008A103000859
:0403F00000BEFEE766
:1003F400D43200080000002080000020D43200081D
:100404000000001000000010800000203C010020CB
:080414000000001000000010C0
:1004200010B504460E4B18784FF47A73B3FBF0F313
:100430000C4A1068B0FBF3F000F09CF868B90F2C80
:1004400001D901200AE0002221464FF0FF3000F0E0
:100450004BF8054B1C60002000E0012010BD00BFE0
:1004600004000020140000200800002008B50B4BF9
:100470001A6842F400721A601A6842F480621A60C4
:100480001A6842F480721A60032000F00FF80F20FF
:10049000FFF7C6FF01F0BAFB002008BD003C024098
:1004A000014B1868704700BF2401002010B50446B6
:1004B000C31E042B0FD80A4AD36823F4E0631B043D
:1004C0001B0C240204F4E064234343F0BF6343F4B1
:1004D0000033D36010BD9221024801F093F9EAE79E
:1004E00000ED00E08830000870B505460C46164661
:1004F0000F2A25D80F2C28D81B4BDB68C3F3022307
:10050000C3F10702042A28BF0422191D062921D994
:10051000033B4FF0FF3101FA02F224EA02049C404F
:1005200001FA03F326EA03063443002D14DB240109
:10053000E4B205F1604505F5614585F8004370BDFD
:10054000AA210A4801F05EF9D4E7AB21074801F07F
:1005500059F9D1E70023DCE705F00F052401E4B2E7
:10056000034B5C55EBE700BF00ED00E0883000086E
:1005700014ED00E00138B0F1807F0AD2064B5860DC
:10058000064AF02182F823100020986007221A60A2
:1005900070470120704700BF10E000E000ED00E070
:1005A00010B50446042800D038B9042C0BD0094AF1
:1005B000136823F00403136010BD40F2C91106480C
:1005C00001F020F9F1E7034A136843F004031360D4
:1005D000F2E700BF10E000E088300008002800F0DB
:1005E000648270B582B0044603680F2B39D8236843
:1005F00013F0010F4DD063682BB1B3F5803F02D0EB
:10060000B3F5A02F32D1A54B9B6803F00C03042B4C
:1006100036D0A24B9B6803F00C03082B2BD06368E9
:10062000B3F5803F5FD0B3F5A02F62D09B4B1A6823
:1006300022F480321A601A6822F480221A606368F9
:10064000002B60D0FFF72CFF0546944B1B6813F47A
:10065000003F1ED1FFF724FF401B6428F5D903207B
:1006600028E2E8218E4801F0CDF8C0E7ED218C4862
:1006700001F0C8F8C7E7894B5B6813F4800FCED050
:10068000864B1B6813F4003F03D06368002B00F017
:100690000E82236813F0020F67D0E368012B41D864
:1006A00023691F2B44D87D4B9B6813F00C0F4AD055
:1006B0007A4B9B6803F00C03082B3FD0E368002BB8
:1006C00077D0784B01221A60FFF7EAFE0546734B9C
:1006D0001B6813F0020F63D1FFF7E2FE401B0228F4
:1006E000F5D90320E6E16D4A136843F480331360C3
:1006F000A5E76A4B1A6842F480221A601A6842F42D
:1007000080321A609BE7FFF7CBFE0546634B1B6800
:1007100013F4003FBDD0FFF7C3FE401B6428F5D99A
:100720000320C7E140F21F115D4801F06BF8B7E705
:100730004FF490715A4801F065F8B4E7574B5B6885
:1007400013F4800FBAD1554B1B6813F0020F04D07D
:10075000E368012B01D00120ACE1504A136823F07B
:10076000F803216943EAC1031360236813F0080FFB
:1007700049D06369012B2ED8636993B34A4B012298
:100780001A60FFF78DFE0546444B5B6F13F0020FB6
:1007900039D1FFF785FE401B0228F5D9032089E1F6
:1007A0003E4A136823F0F803216943EAC10313604A
:1007B000DBE73C4B00221A60FFF772FE0546374B21
:1007C0001B6813F0020FD0D0FFF76AFE401B02280F
:1007D000F5D903206EE14FF4B071314801F012F801
:1007E000CAE7314B00221A60FFF75AFE05462B4B31
:1007F0005B6F13F0020F06D0FFF752FE401B02287A
:10080000F5D9032056E1236813F0040F00F0878028
:10081000A368012B01D9052B38D1204B1B6C13F099
:10082000805F39D1002301931C4B1A6C42F0805237
:100830001A641B6C03F080530193019B01251B4B31
:100840001B6813F4807F33D0A368012B44D0052BA1
:1008500048D0124B1A6F22F001021A671A6F22F069
:1008600004021A67A368002B46D0FFF719FE06465C
:100870000A4B1B6F13F0020F4FD1FFF711FE801BC5
:1008800041F288339842F3D9032013E14FF4C67143
:10089000034800F0B7FFC0E70025D0E7003802406A
:1008A000BC30000800004742800E47420070004004
:1008B000834A136843F480731360FFF7F1FD064623
:1008C0007F4B1B6813F4807FBED1FFF7E9FD801BCF
:1008D0000228F5D90320EDE07A4A136F43F00103B3
:1008E0001367BFE7774B1A6F42F004021A671A6F5B
:1008F00042F001021A67B5E7FFF7D2FD0646714BD9
:100900001B6F13F0020F08D0FFF7CAFD801B41F2E6
:1009100088339842F3D90320CCE0002D3BD1A36962
:10092000022B3ED8A369002B00F0C380654A926871
:1009300002F00C02082A00F09080022B79D1E369C2
:1009400013B1B3F5800F32D1236A3F2B35D8636AD8
:10095000323BB3F5BF7F36D8A36A022B05D0042BF8
:1009600003D0062B01D0082B33D1E36A023B0D2BB9
:1009700035D8554B00221A60FFF792FD0546514BC2
:100980001B6813F0007F30D0FFF78AFD401B022860
:10099000F5D903208EE04B4A136C23F08053136487
:1009A000BDE740F2CF11494800F02CFFBAE74FF401
:1009B000EC71464800F026FFC6E740F2D9114348E3
:1009C00000F020FFC3E74FF4ED71404800F01AFF3C
:1009D000C2E740F2DB113D4800F014FFC5E74FF4D9
:1009E000EE713A4800F00EFFC3E7E369226A134351
:1009F000626A43EA8213A26A5208013A43EA024356
:100A0000E26A43EA02632F4A53602F4B01221A60C5
:100A1000FFF746FD04462B4B1B6813F0007F06D101
:100A2000FFF73EFD001B0228F5D9032042E000201D
:100A300040E0254B00221A60FFF732FD0446214BAF
:100A40001B6813F0007F06D0FFF72AFD001B022869
:100A5000F5D903202EE000202CE0012B2CD0194BDF
:100A60005B6803F48001E269914201D0012021E03A
:100A700003F03F02216A8A4201D001201AE0616A34
:100A800047F6C0721A408A4201D0012012E003F4F6
:100A90004032A16A8A4201D001200BE003F070636A
:100AA000E26A93420AD0012004E00120704701204D
:100AB00000E0002002B070BD0120FBE70020F9E754
:100AC000007000400038024060004742BC3000081F
:100AD000264B9B6803F00C03042B44D0082B01D059
:100AE000234870472DE9F04B204B5A6802F03F0233
:100AF0005B6813F4800F13D01C4B5968C1F3881145
:100B000000231C48A1FB000101F070FC174B5B683F
:100B1000C3F3014301335B00B0FBF3F0BDE8F08B9E
:100B2000124B5B68C3F388131E4600275C01002547
:100B3000E41A65EB0705A90141EA9461A001001BD5
:100B400061EB0501CB0043EA5073C400A01943EBED
:100B500007018B0243EA9053840220461946002382
:100B600001F044FCD2E70348704700BF0038024060
:100B70000024F40040787D01002800F0FA8070B570
:100B800004460D460368013B0E2B11D8072D15D8DE
:100B90007A4B1B6803F00F03AB4215D2EBB2774AD6
:100BA0001370136803F00F03AB420DD0012070BD2A
:100BB00040F25121724800F025FEE7E740F2522151
:100BC0006F4800F01FFEE3E7236813F0020F29D0FF
:100BD00013F0040F04D06B4A936843F4E05393601E
:100BE000236813F0080F04D0664A936843F4604307
:100BF0009360A3687BB1802B0DD0902B0BD0A02BE2
:100C000009D0B02B07D0C02B05D0D02B03D0E02BC0
:100C100001D0F02B33D15B4A936823F0F003A16835
:100C20000B439360236813F0010F42D06368032BDA
:100C30002BD86368012B2ED09A1E012A32D9514A33
:100C4000126812F0020F00F096804E498A6822F076
:100C5000030213438B60FFF723FC0646494B9B6856
:100C600003F00C036268B3EB820F22D0FFF718FC8D
:100C7000801B41F288339842F0D9032097E740F275
:100C800075213F4800F0BEFDC5E74FF41F713C4899
:100C900000F0B8FDCDE73B4A126812F4003FD4D112
:100CA000012084E7374A126812F0007FCDD101207D
:100CB0007DE7324B1B6803F00F03AB4209D9EAB260
:100CC0002E4B1A701B6803F00F03AB4201D00120BA
:100CD0006DE7236813F0040F14D0E3685BB1B3F53C
:100CE000805F08D0B3F5A05F05D0B3F5C05F02D038
:100CF000B3F5E05F31D1234A936823F4E053E16810
:100D00000B439360236813F0080F15D023695BB180
:100D1000B3F5805F08D0B3F5A05F05D0B3F5C05F31
:100D200002D0B3F5E05F1ED1164A936823F4604306
:100D3000216943EAC1039360FFF7CAFE114B9B6828
:100D4000C3F30313104AD35CD840104B1860104B08
:100D50001868FFF765FB002029E740F2BA21084830
:100D600000F050FDC7E740F2C121054800F04AFD00
:100D7000DAE701207047012019E700BF003C02407C
:100D8000BC30000800380240343200081400002053
:100D900008000020014B1868704700BF14000020B5
:100DA000FEE7000008B503460C4A12685AB10B4A28
:100DB0001068033323F003030344094A934206D81F
:100DC000064A136008BD054A06491160EFE701F0C5
:100DD0008DFC0C2303604FF0FF30F3E7840000200C
:100DE00000FC00203C01002001230360014B0B604C
:100DF000704700BF0C0000202DE9F04385B0044689
:100E00000F4643560BB10E461EE0042528462146E8
:100E1000ABBE0446384605B0BDE8F08314F9011BAB
:100E200004AA1A4402F8101C0133AB42F6D304AAF8
:100E30001344002203F8102C4FF00408E946404602
:100E40004946ABBE8046761B002EE3D03546102EB9
:100E500028BF10250023E8E708B5FFF7CDFF08BD40
:100E60000FB400B583B004AB53F8042B0193802179
:100E7000064801F0C5FC002803DD01460348FFF7E2
:100E8000EBFF03B05DF804EB04B070478C0000206A
:100E9000F8B504460D4617461E462748FFF7E0FF03
:100EA00021682648FFF7DCFF61682548FFF7D8FF77
:100EB000A1682448FFF7D4FFE1682348FFF7D0FF7B
:100EC00021692248FFF7CCFF61692148FFF7C8FF7D
:100ED000A1692048FFF7C4FFE1691F48FFF7C0FF81
:100EE0001E48FFF7BDFF29461D48FFF7B9FF1D4CFF
:100EF000E16A1D48FFF7B4FF216B1C48FFF7B0FF04
:100F0000E16B1B48FFF7ACFF15F0800F0AD115F419
:100F1000004F0CD11748FFF7A3FF06991648FFF7BB
:100F20009FFFF8BD39461548FFF79AFFEFE73146B6
:100F30001348FFF795FFEDE7EC300008FC300008A0
:100F40000C3100081C3100082C3100083C3100082D
:100F50004C3100085C3100086C3100087C3100081D
:100F60008831000800ED00E098310008A831000841
:100F7000B8310008E8310008F0310008C831000835
:100F8000D831000883691A888A4201D0002070474E
:100F90000268033A012A03D80233836101207047B3
:100FA0000020704708B500F009F8024A024B9A6029
:100FB00008BD00BF0000000800ED00E0024B4FF04C
:100FC00000629A60704700BF00ED00E0224B9B6812
:100FD00003F00C03042B14D0082B16D01BB11F4BAD
:100FE0001F4A1A6002E01D4B1D4A1A601A4B9B688B
:100FF000C3F303131B4AD15C184A1368CB40136038
:101000007047164B184A1A60F0E7134B5A685B6832
:1010100003F03F0312F4800F13D0134AB2FBF3F234
:101020000D4B5B68C3F3881303FB02F30A4A526853
:10103000C2F3014201325200B3FBF2F3074A1360DC
:10104000D4E7074AB2FBF3F2034B5B68C3F38813A0
:1010500003FB02F3EAE700BF00380240140000205F
:101060000024F4003432000840787D0108B50122E4
:101070001146104600F066F801221146104600F0B5
:101080009BF801221146104600F0E0F802220521EB
:10109000012000F057F801220521104600F04CF91C
:1010A00008BD08B500F028FB01221146104600F0EB
:1010B00007F90A2000F048FA00220121084600F052
:1010C000FFF808BD0000000008B5174B1B78E3B11E
:1010D000012000F0EDFA154B1860134B00221A7036
:1010E00000F0DFFA00F008FB104B1868104B1B688B
:1010F000C01A00F0CFFE0AA3D3E9002300F044FF9A
:1011000001F054F90B4B186008BD00F0C3FA012040
:1011100000F0CEFA064B1860034B01221A70E3E789
:101120009CC420B07268C13F140100200C01002053
:10113000100100202C010020014B1868704700BFEF
:101140002C01002010B4022813D003281FD001283E
:1011500001D010BC7047154B1868490003248C401F
:1011600020EA04001860186802FA01F101431960CE
:10117000EFE70F4B1868490003248C4020EA040075
:101180001860186802FA01F101431960E1E7094BA0
:101190001868490003248C4020EA0400186018688D
:1011A00002FA01F101431960D3E700BF00000240D9
:1011B0000004024000080240022818D003282AD068
:1011C000012800D07047012A09D0022AFAD11C4810
:1011D0004368012202FA01F119434160704718483F
:1011E000436802FA01F123EA010141607047012AD4
:1011F00009D0022AE6D113484368012202FA01F11C
:101200001943416070470F48436802FA01F123EA2D
:10121000010141607047012A09D0022AD2D10A484F
:101220004368012202FA01F119434160CAE7064806
:10123000436802FA01F123EA01014160704700BFEF
:1012400000000240000402400008024010B40228DE
:1012500013D003281FD0012801D010BC7047154BB4
:101260009868490003248C4020EA0400986098683C
:1012700002FA01F101439960EFE70F4B98684900CA
:1012800003248C4020EA04009860986802FA01F177
:1012900001439960E1E7094B9868490003248C40B9
:1012A00020EA04009860986802FA01F1014399600D
:1012B000D3E700BF000002400004024000080240E3
:1012C000022817D0032828D0012800D0704742B147
:1012D000012AFBD11548436902FA01F11943416122
:1012E000704712484369012202FA01F123EA010121
:1012F0004161704742B1012AE8D10D48436902FAC1
:1013000001F119434161704709484369012202FA1A
:1013100001F123EA010141617047012AD6D1054854
:10132000436902FA01F119434161CFE7000002402D
:10133000000402400008024010B4022828D003280C
:1013400043D0012801D010BC7047072912D90F29BA
:10135000F9D8A1F10804E4B22B4B596AA4000F207C
:10136000A04021EA00015962586A02FA04F10143DF
:101370005962E8E7244B186A89000F248C4020EA60
:1013800004001862186A02FA01F101431962DAE7EF
:10139000072A0CD90F2AD6D81C4B5C6A88000F216B
:1013A000814024EA0101596282405A62CBE7174B1F
:1013B000186A89000F248C4020EA04001862186A19
:1013C00002FA01F101431962BDE7072A0DD90F2A7C
:1013D000B9D80F48446A8B000F21994024EA0101D3
:1013E000416202FA03F34362ADE7094B186A8900D0
:1013F0000F248C4020EA04001862186A02FA01F1F6
:10140000014319629FE700BF000002400004024050
:101410000008024000F01F02400901239340024AE5
:1014200042F82030704700BF00E100E0124A136824
:1014300043F001031360104B1B6813F0020FFAD046
:101440000D4B9A6822F001029A609A6822F002021B
:101450009A609A6822F0F00242F080029A609A68DC
:1014600022F4E05242F480629A609A6822F4604268
:1014700042F400529A607047003802400138032855
:1014800022D8DFE800F0020A121A1048036B01228A
:1014900002FA01F11943016370470C48436B0122C2
:1014A00002FA01F11943416370470848036C0122B5
:1014B00002FA01F11943016470470448436C0122A8
:1014C00002FA01F119434164704700BF003802403D
:1014D000074B1A6822F004021A601A6822F002020E
:1014E0001A6000225A601A6822F001021A607047DE
:1014F00010E000E0024A136843F0010313607047F4
:1015000010E000E0024A136823F001031360704703
:1015100010E000E0014B5860704700BF10E000E0B1
:1015200000B583B0064B1B6803B19847054B1B6899
:10153000C3F300438DF8073003B05DF804FB00BF30
:101540001801002010E000E008B5FFF7E3FFFFF707
:10155000D1FF044B1B6813F4803FFAD0FFF7D2FF92
:1015600008BD00BF10E000E04FF080431A6822F091
:1015700020021A601A6822F040021A601A6822F0EB
:1015800010021A600138032821D8DFE800F0022693
:1015900045644FF080439A6942F001029A619A696A
:1015A00022F002029A619A6922F004029A619A6911
:1015B00022F008029A611A6A42F002021A621A6A5A
:1015C00042F008021A621A6A42F001021A624FF0EF
:1015D00080434FF6FF72DA6270474FF080439A699A
:1015E00042F480729A619A6922F400729A619A694F
:1015F00022F480629A619A6922F480629A611A6A7E
:1016000042F020021A621A6A42F080021A621A6AD2
:1016100042F010021A62DAE74FF08043DA6942F0D2
:101620000102DA61DA6922F00202DA61DA6922F48F
:101630008062DA61DA6922F48062DA611A6A42F45D
:1016400000721A621A6A42F400621A621A6A42F45A
:1016500080721A62BBE74FF08043DA6942F480720D
:10166000DA61DA6922F40072DA61DA6922F48062FE
:10167000DA61DA6922F40062DA611A6A42F400522D
:101680001A621A6A42F400421A621A6A42F48052DA
:101690001A629CE74FF08042136843F00103136025
:1016A00070474FF08042136823F0010313607047C6
:1016B0000138032813D8DFE800F002060A0E4FF0C5
:1016C0008043586B70474FF08043986B70474FF0E2
:1016D0008043D86B70474FF08043186C70470020F0
:1016E00070474FF08042D36843F00203D3607047E5
:1016F0004FF08043986270474FF0804300225A6257
:1017000070470000084BDA6842F00802DA60DA68D5
:1017100042F00402DA6040F241329A60DA6842F440
:101720000052DA60704700BF0010014000228A4278
:101730000ED210B48456074B5C60064B1B6813F046
:10174000400FFAD00132D2B28A42F3D310BC7047B4
:10175000704700BF0010014070B594B000240194A0
:10176000214B1A6C42F080521A641B6C03F08053B8
:101770000193019B02941D4B1A6842F440421A6087
:101780001B6803F440430293029B012308934FF428
:10179000803309934FF480030F93192310934FF470
:1017A000A8731193042612960723139302250E950E
:1017B00008A8FEF713FF0F230393049505944FF435
:1017C000805306930794294603A8FFF7D5F9FFF73E
:1017D000E1FA074BA3FB00308009FEF7CBFE304651
:1017E000FEF7DEFE14B070BD00380240007000400D
:1017F000D34D621008B5FEF739FEFFF7ADFFFFF7D6
:10180000E5FB08BD08B50A4601460248FFF728FB7C
:10181000FEE700BF4432000800B583B0FFF706FEC4
:1018200000210120FFF72AFE01210846FFF726FECE
:1018300000210320FFF722FE04210846FFF71EFEC9
:10184000012200210220FFF77DFC01221146022027
:10185000FFF778FC012202210846FFF773FC012202
:1018600003210220FFF76EFC012204210220FFF772
:1018700069FC012205210220FFF764FC01220621F8
:101880000220FFF75FFC012207210220FFF75AFC2C
:10189000022209210120FFF755FC02220A21012022
:1018A000FFF750FC072209210120FFF745FD072221
:1018B0000A210120FFF740FDFFF724FF1C20FFF75E
:1018C000A9FDFFF705FEFFF7D1FB0120FFF74CFE56
:1018D0000220FFF70DFFFFF704FF27E001220021A0
:1018E0000220FFF7EDFC002201210220FFF7E8FCB7
:1018F000002202210846FFF7E3FC00220321022018
:10190000FFF7DEFC002204210220FFF7D9FC0022B1
:1019100005210220FFF7D4FC002206210220FFF758
:10192000CFFC002207210220FFF7CAFC002300930E
:101930008DF80430FFF7B5FBFFF7FEFBB04C2060DD
:1019400020680A22694600F0EFFE05216846FFF78D
:10195000EDFE0221AB48FFF7E9FEAB48FFF7F4FDCF
:1019600023680A2BBAD9A64B1B68322B46D9A44B45
:101970001B68642B6BD9A24B1B68C82B40F2938069
:101980009F4B1B68B3F5967F40F2B9809C4B1B6858
:10199000B3F5FA7F40F2DF80994B1B68B3F52F7FD8
:1019A00000F20281002211460220FFF789FC00228A
:1019B00001210220FFF784FC002202210846FFF7E4
:1019C0007FFC002203210220FFF77AFC0022042181
:1019D0000220FFF775FC002205210220FFF770FCB2
:1019E000012206210220FFF76BFC002207210220C2
:1019F000FFF766FC1E20FFF7A7FD97E700221146C0
:101A00000220FFF75DFC012211460220FFF758FC7F
:101A1000002202210846FFF753FC00220321022086
:101A2000FFF74EFC002204210220FFF749FC0022B0
:101A300005210220FFF744FC002206210220FFF7C7
:101A40003FFC002207210220FFF73AFC6EE700224C
:101A500011460220FFF734FC002201210220FFF78B
:101A60002FFC012202210846FFF72AFC0022032155
:101A70000220FFF725FC002204210220FFF720FCB2
:101A8000002205210220FFF71BFC00220621022074
:101A9000FFF716FC002207210220FFF711FC1E2091
:101AA000FFF752FD42E7002211460220FFF708FC33
:101AB000002201210220FFF703FC00220221084638
:101AC000FFF7FEFB012203210220FFF7F9FB0022B2
:101AD00004210220FFF7F4FB002205210220FFF77A
:101AE000EFFB002206210220FFF7EAFB002207217C
:101AF0000220FFF7E5FB1E20FFF726FD16E7002278
:101B000011460220FFF7DCFB002201210220FFF733
:101B1000D7FB002202210846FFF7D2FB0022032157
:101B20000220FFF7CDFB012204210220FFF7C8FBB2
:101B3000002205210220FFF7C3FB0022062102201C
:101B4000FFF7BEFB002207210220FFF7B9FB1E2092
:101B5000FFF7FAFCEAE6002211460220FFF7B0FB8D
:101B6000002201210220FFF7ABFB002202210846E0
:101B7000FFF7A6FB002203210220FFF7A1FB0022B2
:101B800004210220FFF79CFB012205210220FFF720
:101B900097FB002206210220FFF792FB002207217B
:101BA0000220FFF78DFBC1E6002211460220FFF75D
:101BB00087FB002201210220FFF782FB0022022185
:101BC0000846FFF77DFB002203210220FFF778FB88
:101BD000002204210220FFF773FB002205210220CE
:101BE000FFF76EFB002206210220FFF769FB0122AE
:101BF00007210220FFF764FB1E20FFF7A5FC95E6F6
:101C0000300100208431000840420F00704700007E
:101C100081F0004102E000BF83F0004330B54FEA9D
:101C200041044FEA430594EA050F08BF90EA020F0A
:101C30001FBF54EA000C55EA020C7FEA645C7FEA9D
:101C4000655C00F0E2804FEA5454D4EB5555B8BFC0
:101C50006D420CDD2C4480EA020281EA030382EA31
:101C6000000083EA010180EA020281EA0303362DC3
:101C700088BF30BD11F0004F4FEA01314FF4801C96
:101C80004CEA113102D0404261EB410113F0004FA8
:101C90004FEA03334CEA133302D0524263EB43035F
:101CA00094EA050F00F0A780A4F10104D5F1200EFD
:101CB0000DDB02FA0EFC22FA05F2801841F1000158
:101CC00003FA0EF2801843FA05F359410EE0A5F12C
:101CD00020050EF1200E012A03FA0EFC28BF4CF05D
:101CE000020C43FA05F3C01851EBE37101F0004513
:101CF00007D54FF0000EDCF1000C7EEB00006EEB20
:101D00000101B1F5801F1BD3B1F5001F0CD34908A9
:101D10005FEA30004FEA3C0C04F101044FEA445200
:101D200012F5800F80F09A80BCF1004F08BF5FEA87
:101D3000500C50F1000041EB045141EA050130BD67
:101D40005FEA4C0C404141EB010111F4801FA4F10A
:101D50000104E9D191F0000F04BF01460020B1FA5F
:101D600081F308BF2033A3F10B03B3F120020CDA97
:101D70000C3208DD02F1140CC2F10C0201FA0CF075
:101D800021FA02F10CE002F11402D8BFC2F1200CDA
:101D900001FA02F120FA0CFCDCBF41EA0C01904090
:101DA000E41AA2BF01EB0451294330BD6FEA0404D9
:101DB0001F3C1CDA0C340EDC04F11404C4F12002C4
:101DC00020FA04F001FA02F340EA030021FA04F3D6
:101DD00045EA030130BDC4F10C04C4F1200220FA2D
:101DE00002F001FA04F340EA0300294630BD21FA6B
:101DF00004F0294630BD94F0000F83F4801306BF31
:101E000081F480110134013D4EE77FEA645C18BF24
:101E10007FEA655C29D094EA050F08BF90EA020FBB
:101E200005D054EA000C04BF1946104630BD91EAB3
:101E3000030F1EBF0021002030BD5FEA545C05D1B6
:101E40004000494128BF41F0004130BD14F58004F5
:101E50003CBF01F5801130BD01F0004545F0FE4169
:101E600041F470014FF0000030BD7FEA645C1ABF9E
:101E7000194610467FEA655C1CBF0B46024650EAD5
:101E8000013406BF52EA033591EA030F41F4002101
:101E900030BD00BF90F0000F04BF0021704730B587
:101EA0004FF4806404F132044FF000054FF000015C
:101EB00050E700BF90F0000F04BF0021704730B51D
:101EC0004FF4806404F1320410F0004548BF4042F2
:101ED0004FF000013EE700BF42004FEAE2014FEA47
:101EE00031014FEA02701FBF12F07F4393F07F4F22
:101EF00081F06051704732F07F4208BF704793F025
:101F00007F4F04BF41F40021704730B54FF4607437
:101F100001F0004521F000411CE700BF50EA01023A
:101F200008BF704730B54FF000050AE050EA0102E3
:101F300008BF704730B511F0004502D5404261EB53
:101F400041014FF4806404F132045FEA915C3FF494
:101F5000D8AE4FF003025FEADC0C18BF03325FEA31
:101F6000DC0C18BF033202EBDC02C2F1200300FAE2
:101F700003FC20FA02F001FA03FE40EA0E0021FA07
:101F800002F11444BDE600BF70B54FF0FF0C4CF4F5
:101F9000E06C1CEA11541DBF1CEA135594EA0C0FA7
:101FA00095EA0C0F00F0DEF82C4481EA030621EAE2
:101FB0004C5123EA4C5350EA013518BF52EA03351D
:101FC00041F4801143F4801338D0A0FB02CE4FF0CF
:101FD0000005E1FB02E506F00042E0FB03E54FF0FF
:101FE0000006E1FB03569CF0000F18BF4EF0010EF7
:101FF000A4F1FF04B6F5007F64F5407404D25FEAF3
:102000004E0E6D4146EB060642EAC62141EA5551A5
:102010004FEAC52040EA5E504FEACE2EB4F1FD0CE7
:1020200088BFBCF5E06F1ED8BEF1004F08BF5FEA65
:10203000500E50F1000041EB045170BD06F0004617
:1020400046EA010140EA020081EA0301B4EB5C04C4
:10205000C2BFD4EB0C0541EA045170BD41F48011BC
:102060004FF0000E013C00F3AB8014F1360FDEBFE1
:10207000002001F0004170BDC4F10004203C35DABD
:102080000C341BDC04F11404C4F1200500FA05F340
:1020900020FA04F001FA05F240EA020001F00042E1
:1020A00021F0004110EBD37021FA04F642EB060157
:1020B0005EEA430E08BF20EAD37070BDC4F10C0481
:1020C000C4F1200500FA04F320FA05F001FA04F245
:1020D00040EA020001F0004110EBD37041F1000131
:1020E0005EEA430E08BF20EAD37070BDC4F120053C
:1020F00000FA05F24EEA020E20FA04F301FA05F2A4
:1021000043EA020321FA04F001F0004121FA04F24B
:1021100020EA020000EBD3705EEA430E08BF20EA1B
:10212000D37070BD94F0000F0FD101F00046400055
:1021300041EB010111F4801F08BF013CF7D041EAD7
:10214000060195F0000F18BF704703F000465200DB
:1021500043EB030313F4801F08BF013DF7D043EAAC
:102160000603704794EA0C0F0CEA135518BF95EA62
:102170000C0F0CD050EA410618BF52EA4306D1D1E9
:1021800081EA030101F000414FF0000070BD50EA08
:10219000410606BF1046194652EA430619D094EA92
:1021A0000C0F02D150EA013613D195EA0C0F05D17C
:1021B00052EA03361CBF104619460AD181EA0301D0
:1021C00001F0004141F0FE4141F470014FF0000088
:1021D00070BD41F0FE4141F4780170BD70B54FF023
:1021E000FF0C4CF4E06C1CEA11541DBF1CEA1355A3
:1021F00094EA0C0F95EA0C0F00F0A7F8A4EB050485
:1022000081EA030E52EA03354FEA013100F088807B
:102210004FEA03334FF0805545EA131343EA126344
:102220004FEA022245EA111545EA10654FEA0026F9
:102230000EF000419D4208BF964244F1FD0404F5B2
:10224000407402D25B084FEA3202B61A65EB03050E
:102250005B084FEA32024FF480104FF4002CB6EBCB
:10226000020E75EB030E22BFB61A754640EA0C004B
:102270005B084FEA3202B6EB020E75EB030E22BF8B
:10228000B61A754640EA5C005B084FEA3202B6EBCC
:10229000020E75EB030E22BFB61A754640EA9C008B
:1022A0005B084FEA3202B6EB020E75EB030E22BF5B
:1022B000B61A754640EADC0055EA060E18D04FEA19
:1022C000051545EA16754FEA06164FEAC30343EAB9
:1022D00052734FEAC2025FEA1C1CC0D111F4801F86
:1022E0000BD141EA00014FF000004FF0004CB6E77F
:1022F00011F4801F04BF01430020B4F1FD0C88BF1E
:10230000BCF5E06F3FF6AFAEB5EB030C04BFB6EB28
:10231000020C5FEA500C50F1000041EB045170BD1B
:102320000EF0004E4EEA113114EB5C04C2BFD4EB48
:102330000C0541EA045170BD41F480114FF0000ECC
:10234000013C90E645EA060E8DE60CEA135594EA48
:102350000C0F08BF95EA0C0F3FF43BAF94EA0C0F4B
:102360000AD150EA01347FF434AF95EA0C0F7FF4C0
:1023700025AF104619462CE795EA0C0F06D152EA14
:1023800003353FF4FDAE1046194622E750EA4106F8
:1023900018BF52EA43067FF4C5AE50EA41047FF409
:1023A0000DAF52EA43057FF4EBAE12E74A0011D2BB
:1023B00012F5001211D20DD56FF47873B3EB62529F
:1023C0000ED44FEAC12343F0004343EA505323FAAB
:1023D00002F070474FF00000704750EA013002D120
:1023E0004FF0FF3070474FF00000704753B94AB9C3
:1023F000002908BF00281CBF4FF0FF314FF0FF300D
:1024000000F072B9ADF1080C6DE904CE00F006F8E9
:10241000DDF804E0DDE9022304B070472DE9F04760
:10242000089E04468846002B4BD18A42154667D940
:10243000B2FA82F24AB1C2F1200701FA02F320FA9D
:1024400007F7954047EA030894404FEA154E230CDE
:10245000B8FBFEF71FFA85FC0EFB178843EA08431A
:1024600007FB0CF1994209D9EB1807F1FF3080F016
:102470001B81994240F21881023F2B445B1AA4B29F
:10248000B3FBFEF00EFB103344EA034400FB0CFCEC
:10249000A44509D92C1900F1FF3380F00781A44528
:1024A00040F2048102382C4440EA0740A4EB0C04BB
:1024B00000271EB1D4400023C6E900433946BDE8D9
:1024C000F0878B4209D9002E00F0EB800027C6E987
:1024D000000138463946BDE8F087B3FA83F7002F8C
:1024E00047D18B4202D3824200F2FA80841A61EB18
:1024F000030301209846002EE0D0C6E90048DDE73E
:1025000002B9FFDEB2FA82F2002A40F08F80491B46
:102510004FEA154E1FFA85F80127B1FBFEFC230C8C
:102520000EFB1C1143EA014308FB0CF1994207D949
:10253000EB180CF1FF3002D2994200F2CD808446B4
:10254000591AA3B2B1FBFEF00EFB101443EA044487
:1025500008FB00F8A04507D92C1900F1FF3302D27F
:10256000A04500F2B6801846A4EB080440EA0C40EF
:102570009FE7C7F1200CBB4022FA0CFE4EEA030E87
:1025800001FA07F420FA0CF521FA0CF34FEA1E4881
:102590002543B3FBF8F92C0C08FB19331FFA8EFA0C
:1025A00044EA034309FB0AF49C4202FA07F200FAE8
:1025B00007F10BD91EEB030309F1FF3080F0878090
:1025C0009C4240F28480A9F1020973441B1BADB206
:1025D000B3FBF8F008FB103345EA034400FB0AFAAA
:1025E000A24508D91EEB040400F1FF336BD2A245CB
:1025F00069D90238744440EA0940A0FB0289A4EB7F
:102600000A044C45C2464B4654D351D0002E69D0E3
:10261000B1EB0A0564EB030404FA0CFCFD40FC403A
:102620004CEA0505C6E90054002747E7C2F120033C
:1026300020FA03F7954001FA02F021FA03F34FEA7A
:10264000154E3843010CB3FBFEF71FFA85F80EFB5D
:10265000173341EA034107FB08F38B4204FA02F403
:1026600007D9691807F1FF3C2FD28B422DD9023FC1
:102670002944CB1A81B2B3FBFEF00EFB103341EAC2
:10268000034100FB08F38B4207D9691800F1FF3CB6
:1026900017D28B4215D902382944C91A40EA074794
:1026A0003BE73746304609E70746E7E61846FBE6CC
:1026B0004145ABD2B8EB020A69EB0E020138134672
:1026C000A4E76046E9E7184695E76746D1E7814603
:1026D0007CE702382C4447E7ACF1020C2B442FE78F
:1026E000384608E73746E9E6704700BF014B1868EF
:1026F000704700BF18000020931E222B10B50C4617
:1027000004D900230B701C46204610BD0A2A09D1AB
:10271000002807DA2D230B7040420121214400F0EC
:1027200005F8F1E70021F9E7FFF7E6BFF0B51D4B2B
:102730008BB005460C466E4603F1200C18685968AC
:10274000374603C7083363453E46F7D118681B79FF
:102750003B71931E222B38604FF0000304D9237085
:102760001C4620460BB0F0BD661EB5FBF2F00AAF6A
:1027700002FB10553D44591C15F8285C06F8015F12
:10278000054668B9605423442246191B101B814238
:10279000E7DD1178187802F8010B03F80119F4E766
:1027A0000B46E2E77132000830B5141E05469BB0B7
:1027B000184605DA8B232B604FF0FF301BB030BD7D
:1027C0004FF40273ADF80C3014BF04F1FF3323460D
:1027D000029305934FF6FF7300910491ADF80E300C
:1027E00002461E9B6946284600F072F8431CBCBF97
:1027F0008B232B60002CE1D0009B00221A70DDE7B8
:1028000007B5009313460A46014603480068FFF7E0
:10281000CBFF03B05DF804FB180000202DE9F04762
:102820008E689E4282460C469046994637D88A89E1
:1028300012F4906F31D0256809696F1A6569022317
:1028400005EB450595FBF3F509F101033B449D427A
:1028500038BF1D46530530D5294600F07BFB0646A0
:1028600050B90C23CAF80030A38943F04003A38178
:102870004FF0FF30BDE8F0873A46216900F0F8FAE2
:10288000A38923F4906343F08003A38126616561EB
:102890003E44ED1B2660A5604E464E4500D94E468F
:1028A00032464146206800F0EEFAA3689B1BA36005
:1028B00023681E4426600020DCE72A4600F0A4FBC3
:1028C00006460028E2D12169504600F0F5FAC8E733
:1028D0002DE9F04F9DB0804603938B891D060C4671
:1028E00016460FD50B696BB9402100F033FB206011
:1028F000206128B90C23C8F800304FF0FF30C7E042
:10290000402363610023099320238DF8293030236D
:102910008DF82A304FF0010B37463D4615F8013B44
:102920000BB1252B3ED1B7EB060A0BD053463246EE
:1029300021464046FFF772FF013000F0A480099B5A
:10294000534409933B78002B00F09D8000234FF007
:10295000FF32CDE90523049307938DF853301A9382
:102960002F46052217F8011B4F4800F031FA049B4F
:10297000D0B9D90644BF20228DF853201A0744BF8E
:102980002B228DF853202A782A2A15D0079A2F4611
:1029900000200A25394611F8013B303B092B4DD95F
:1029A000B8B10FE02F46B8E73F4A801A0BFA00F0A3
:1029B000184304903D46D3E7039A111D1268039112
:1029C000002A01DB079204E0524243F0020307921F
:1029D00004933B782E2B0CD17B782A2B33D1039B8D
:1029E0001A1D1B680392002BB8BF4FF0FF3302374C
:1029F00005932E4D39780322284600F0E9F938B1C5
:102A00004023401B03FA00F0049B03430137049367
:102A1000397827488DF8281006227E1C00F0D8F956
:102A2000002838D0234B13BB039B073323F0070345
:102A300008330393099B4B4409936DE705FB02326E
:102A400001200F46A6E700230137059319460A2502
:102A5000384610F8012B303A092A03D9002BC8D088
:102A60000591C6E705FB012101230746F0E703AB0B
:102A700000932246104B04A94046AFF30080B0F10A
:102A8000FF3F8146D6D1A3895B063FF536AF099853
:102A90001DB0BDE8F08F03AB00932246064B04A99E
:102AA000404600F081F8EAE7963200089C320008C0
:102AB000A0320008000000001D2800082DE9F047A2
:102AC00091461F468A680B69DDF820809342B8BFA3
:102AD0001346C9F8003091F8432006460C4612B15F
:102AE0000133C9F800302368990642BFD9F8003095
:102AF0000233C9F80030256815F0060507D104F146
:102B0000190AE368D9F800209B1AAB4228DC94F834
:102B100043302268003318BF012392062DD404F1FC
:102B2000430239463046C047013020D02368E5686B
:102B3000D9F8002003F00603042B08BFAD1AA368E0
:102B400022690CBF25EAE57500259342C4BF9B1A94
:102B5000ED184FF000091A344D451AD1002008E055
:102B60000123524639463046C047013003D14FF069
:102B7000FF30BDE8F0870135C3E7E1185A1C30206B
:102B800081F84300224494F8451082F84310023340
:102B9000C5E70123224639463046C0470130E6D01A
:102BA00009F10109D8E700002DE9F04301F1430CD8
:102BB0000C46097E85B06E291746064698460C9A43
:102BC00000F0B38022D8632936D00AD8002900F05B
:102BD000B980582900F0838004F1420584F842103E
:102BE00032E0642901D06929F6D12068136805060E
:102BF00003F104012AD51B681160002B03DA2D2292
:102C00005B4284F843206F480A2239E0732900F0C0
:102C10009D8008D86F2920D07029DDD1236843F02A
:102C20002003236003E0752917D07829D4D17823B5
:102C300084F84530644855E01368191D1B6811601D
:102C400004F1420584F8423001238CE01B681160D6
:102C500010F0400F18BF1BB2CFE713682568181D8E
:102C60001060280601D51B6802E06806FBD51B88AA
:102C700054486F2914BF0A220822002184F8431007
:102C80006568A560002DC0F29580216821F00401DF
:102C90002160002B3DD1002D40F08E806546082A32
:102CA0000BD12368DB0708D5236962689A42DEBF2F
:102CB000302305F8013C05F1FF35ACEB050323613A
:102CC000CDF800803B4603AA21463046FFF7F6FECA
:102CD00001304DD14FF0FF3005B0BDE8F0833948E9
:102CE00084F84510136821681D1D1B6815600A06CD
:102CF0000BD5CA0744BF41F0200121601BB92268EF
:102D000022F0200222601022B7E74D0648BF9BB296
:102D1000EFE76546B3FBF2F102FB1133C35C05F844
:102D2000013D0B460029F5D1B9E7136825686169B3
:102D3000181D106028061B6801D5196002E06A069C
:102D4000FBD51980002323616546B9E71368191D77
:102D500011601D6862680021284600F039F808B14A
:102D6000401B606063682361002384F84330A7E759
:102D700023692A4639463046C0470130AAD0236825
:102D80009B0713D4E068039B9842B8BF1846A3E79B
:102D900001234A4639463046C04701309AD00135B2
:102DA000E368039A9B1AAB42F2DCEBE7002504F1DF
:102DB0001909F5E7002BACD1037884F8423004F10F
:102DC00042056CE7A7320008B83200080000000096
:102DD00001F0FF01102A2BDB10F0070F08D010F8CC
:102DE000013B013A8B422DD010F0070F42B3F6D1D0
:102DF000F0B441EA012141EA014122F007047FF0E9
:102E000000070023F0E80256083C85EA010586EA3F
:102E1000010685FA47F5A3FA87F586FA47F6A5FA7B
:102E200087F68EB9EED1F0BC01F0FF0102F0070287
:102E300032B110F8013B013A83EA010313B1F8D132
:102E40000020704701387047002D06BF3546033813
:102E5000073815F0010F07D1013015F4807F02BF4C
:102E6000013015F4C03F0130F0BC0138704700BF9D
:102E700010B5431E0A44914200D110BD11F8014B18
:102E800003F8014FF7E7884210B501EB020307D8BA
:102E9000421E99420AD011F8014B02F8014FF8E79F
:102EA0008342F5D98118D21AD34200D110BD13F84C
:102EB000014D01F8014DF7E738B50546002945D029
:102EC00051F8043C0C1F002BB8BFE41800F0D2F8F6
:102ED0001F4A1368104633B9636014602846BDE882
:102EE000384000F0C8B8A3420CD921686218934258
:102EF00004BF1A685B68636004BF521822600460F4
:102F0000ECE713465A680AB1A242FAD91968581870
:102F1000A0420BD120680144581882421960DDD1CB
:102F2000106852685A6001441960D7E702D90C232F
:102F30002B60D3E7206821188A4204BF11685268C9
:102F4000626004BF091821605C60C7E738BD00BF3C
:102F50001C01002070B5CD1C25F0030508350C2D93
:102F600038BF0C25002D064601DBA94203D90C23EE
:102F70003360002070BD00F07DF8214A14682146BE
:102F800091B9204C23681BB9304600F063F82060EB
:102F90002946304600F05EF8431C24D10C233360F0
:102FA000304600F068F8E4E70B685B1B18D40B2B85
:102FB0000FD90B60CD50CC18304600F05CF804F10E
:102FC0000B00231D20F00700C31AD3D05A42E25051
:102FD000D0E78C424B6816BF636013600C46EBE78A
:102FE0000C464968CCE7C41C24F00304A04205D079
:102FF000211A304600F02EF80130CFD02560DBE7F3
:103000001C01002020010020F8B5074614460E469A
:1030100021B91146BDE8F840FFF79CBF22B9FFF780
:103020004BFF25462846F8BD00F026F8A0420FD2F7
:1030300021463846FFF78EFF05460028F2D031467C
:103040002246FFF715FF31463846FFF735FFE9E71F
:103050003546E7E738B5064C0023054608462360A9
:10306000FDF7A0FE431C02D1236803B12B6038BDDD
:10307000280100207047704751F8043C181F002BAE
:10308000BCBF0B58C01870472E2E2F737973746510
:103090006D2F7372632F73746D333266342D6861D4
:1030A0006C2F73746D3332663478785F68616C5F4F
:1030B000636F727465782E63000000002E2E2F73EC
:1030C000797374656D2F7372632F73746D33326609
:1030D000342D68616C2F73746D3332663478785F89
:1030E00068616C5F7263632E6300000053746163F8
:1030F0006B206672616D653A0A0000002052302034
:103100003D2020253038580A000000002052312090
:103110003D2020253038580A00000000205232207F
:103120003D2020253038580A00000000205233206E
:103130003D2020253038580A00000000205231324E
:10314000203D20253038580A00000000204C522035
:103150003D2020253038580A000000002050432030
:103160003D2020253038580A0000000020505352DE
:10317000203D20253038580A000000004653522FC9
:103180004641523A0A0000002043465352203D2057
:1031900020253038580A00002048465352203D2050
:1031A00020253038580A00002044465352203D2044
:1031B00020253038580A00002041465352203D2037
:1031C00020253038580A0000204D4D464152203D00
:1031D00020253038580A00002042464152203D2028
:1031E00020253038580A00004D6973630A0000003A
:1031F000204C522F4558435F52455455524E3D2066
:10320000253038580A0000005B48617264466175D9
:103210006C745D0A000000005B4275734661756C5A
:10322000745D0A005B55736167654661756C745D1A
:103230000A0000000000000000000000010203047A
:103240000607080957726F6E6720706172616D65BD
:10325000746572732076616C75653A2066696C6579
:10326000202573206F6E206C696E652025640D0A21
:103270000030313233343536373839616263646552
:10328000666768696A6B6C6D6E6F70717273747566
:10329000767778797A00232D302B2000686C4C00EB
:1032A0006566674546470030313233343536373846
:1032B00039414243444546003031323334353637A4
:0932C0003839616263646566003F
:0832CC0050F1FF7F010000003A
:1032D4007856341201FFFFFF100000008800002020
:1032E400000000000024F4001C0000200000000086
:1032F40000000000000000000000000000000000CA
:1033040000000000000000000000000000000000B9
:1033140000000000000000000000000000000000A9
:103324000000000000000000000000000000000099
:103334000000000000000000000000000000000089
:1033440000000000000000000000000032547698E5
:040000050800019559
:00000001FF
